:100000000C94DD010C940E020C940E020C940E0262
:100010000C940E020C940E020C940E020C940E0220
:100020000C940E020C942D070C942D070C942D07A4
:100030000C940E020C940E020C940E020C940E0200
:100040000C940E020C940E020C940E020C940E02F0
:100050000C940E020C940E020C940E020C94E30607
:100060000C940E020C94AD060C9483060C940E02B4
:100070000C940E020C940E020C940E020C940E02C0
:100080000C940E020C940E020C940E020C940E02B0
:100090000C940E020C940E020C940E020C940E02A0
:1000A0000C940E020C940E020C940E020C940E0290
:1000B0000C940E020C940E020C940E020C940E0280
:1000C0000C940E020C940E020C940E020C940E0270
:1000D0000C940E020C940E020C940E020C940E0260
:1000E0000C940E020C9405080C9439050C94F0073E
:1000F0000C944D0E0C94F00D0C94920E0C945D0328
:100100000C947F030C945A050C94AC040C94D907FE
:100110000C947E0E0C9409080C94A30E0C94040409
:100120000C94FF070C941D080C940F080C942710D6
:100130000C9421030C9421080C9425080C94710351
:100140000C942B080C94C4040C94730E0C9421058D
:100150000C94DE070C940E0E0C9435080C94580E7B
:100160000C94F8070C942F080C949E0C0C94FC072C
:100170000C9413080C94320E0C9417080C94B703CB
:100180000C94F4070C94C5040C94D30D0C94990EA4
:100190000C94140E0C944E030C94AE0E00407A1086
:1001A000F35A00A0724E18090010A5D4E80000E828
:1001B0007648170000E40B54020000CA9A3B000086
:1001C00000E1F505000080969800000040420F0015
:1001D0000000A08601000000102700000000E803D6
:1001E000000000006400000000000A0000000000A1
:1001F0000100000000002C76D888DC674F0823DF60
:10020000C1DFAE59E1B1B796E5E3E453C63AE65132
:10021000997696E8E6C28426EB898C9B62ED407C59
:100220006FFCEFBC9C9F40F2BAA56FA5F490055AF5
:100230002AF75C936B6CF9676DC11BFCE0E40D471A
:10024000FEF520E6B500D0ED902E0300943577053D
:100250000080841E080000204E0A000000C80C33F5
:100260003333330F986E12831141EF8D2114893B84
:10027000E65516CFFEE6DB18D1844B381BF77C1D04
:10028000901DA4BBE424203284725E228100C9F157
:1002900024ECA1E53D2700000A0B02090C0D0E0815
:1002A000070304010000000000000000000000003F
:1002B000000000000000000000000000000000003E
:1002C00000001211100000000000000000000000FB
:1002D00000000000000000000000000000002000FE
:1002E0002300260029002C002F003200000100000E
:1002F00003010601090100002100240027002A0053
:100300002D003000330001010000040107010A0143
:1003100000002200250028002B002E0031003400B0
:1003200002010000050108010B010505050507058F
:1003300008080808020202020A0A08080404040461
:10034000010101010101010103030303030303038D
:10035000040707070C0C0C0C0C0C0C0C020202021C
:1003600006060606060606060B0B0B0B0B0B0B0B05
:1003700001021020200808102040102040800201B7
:10038000020108040201010204081020408080409C
:10039000201008040201800402018040201008049B
:1003A0000201080402010102040810204080010239
:1003B0000408102040803508271011241FBECFEFFD
:1003C000D1E2DEBFCDBF00E00CBF24E0A0EEB2E082
:1003D00001C01D92A036B207E1F712E0A0E0B2E042
:1003E000E0E8FFE200E00BBF02C007900D92A03EE4
:1003F000B107D9F711E0CCEDD1E000E006C02197BC
:100400000109802FFE010E947415CB3DD10780E0C9
:100410000807A9F70E949A090C94AE170C940000E3
:100420000F931F93CF93DF93C0913F04E0E4F4E078
:10043000CD3211F0EFE3F4E08F0120E030E0A901CC
:10044000D801DD918D0180ED8D0F8A3090F4AAE006
:10045000B0E00E94FC132D2FDD0F330B440B550B26
:10046000260F371F481F591F2053310941095109D1
:10047000E7CFA4E6B0E00E94FC13AB01BC01DF01B2
:10048000819190ED980F9A30D0F38E3259F51196F4
:100490008C91119790ED980F9A3020F5082E000C52
:1004A000990BC0972AE0289F8001299F100D1124E5
:1004B000012E000C220B330B400F511F621F731FC4
:1004C00012968C9190ED980F9A3060F4082E000CE3
:1004D000990BC097092E000CAA0BBB0B480F591F94
:1004E0006A1F7B1FCD3239F4709560955095419508
:1004F0005F4F6F4F7F4FCB01BA01DF91CF911F91BB
:100500000F9108954F925F926F927F928F929F9278
:10051000AF92BF92CF92DF92EF92FF921F93CF9351
:10052000DF93CFE3D4E0FE01C12CD12C76011191F1
:1005300080ED810F8A30A8F4AAE0B0E0A70196010F
:100540000E94FC13C12E110FDD08EE08FF08C60E35
:10055000D71EE81EF91E80E3C81AD108E108F10889
:10056000E6CFC701B60124E630E040E050E00E944B
:1005700052159B01AC0160EA76E881E090E00E94B0
:100580002E154B015C019E01899190ED980F9A30D8
:10059000D0F38E3221F5E901219680E1482E87E2E1
:1005A000582E612C712CA99180ED8A0F8A30B8F4F5
:1005B0000A2E000CBB0BD097A30192010E947C1560
:1005C000860E971EA81EB91EC301B2012AE030E0B4
:1005D00040E050E00E94521529013A01E4CFC701E2
:1005E000B60124E630E040E050E00E94521560E49D
:1005F00072E48FE090E00E942E156B017C01C50132
:10060000B4016D5F7F4F8F4F9F4F26E030E040E099
:1006100050E00E945215C701B601620F731F841F7C
:10062000951FDF91CF911F91FF90EF90DF90CF90BA
:10063000BF90AF909F908F907F906F905F904F9002
:100640000895AF92BF92CF92DF92EF92FF920F93F5
:100650001F93CF93DF936C017B018B01040F151F58
:10066000EB015E01AE18BF08C017D10759F06991C0
:10067000D601ED91FC910190F081E02DC601199514
:10068000892B79F7C501DF91CF911F910F91FF90D1
:10069000EF90DF90CF90BF90AF900895FC01538D05
:1006A000448D252F30E0842F90E0821B930B54174C
:1006B00010F0CF96089501970895FC01918D828DD9
:1006C000981761F0A28DAE0FBF2FB11D5D968C9172
:1006D000928D9F5F9F73928F90E008958FEF9FEFB1
:1006E0000895FC01918D828D981731F0828DE80F6D
:1006F000F11D858D90E008958FEF9FEF0895FC0127
:10070000918D228D892F90E0805C9F4F821B9109F3
:100710008F73992708958DE293E00E947F0321E073
:10072000892B09F420E0822F0895FC01A48DA80FE5
:10073000B92FB11DA35ABF4F2C91848D90E0019623
:100740008F739927848FA689B7892C93A089B18943
:100750008C91837080648C93938D848D981306C0E4
:100760000288F389E02D80818F7D80830895EF9248
:10077000FF920F931F93CF93DF93EC0181E0888F5B
:100780009B8D8C8D98131AC0E889F989808185FF2B
:1007900015C09FB7F894EE89FF896083E889F989CD
:1007A00080818370806480839FBF81E090E0DF91CF
:1007B000CF911F910F91FF90EF900895F62E0B8D22
:1007C00010E00F5F1F4F0F731127E02E8C8D8E11DD
:1007D0000CC00FB607FCFACFE889F989808185FF44
:1007E000F5CFCE010E949503F1CFEB8DEC0FFD2FDD
:1007F000F11DE35AFF4FF0829FB7F8940B8FEA89FF
:10080000FB8980818062CFCFCF93DF93EC01888D0D
:100810008823B9F0AA89BB89E889F9898C9185FD7B
:1008200003C0808186FD0DC00FB607FCF7CF8C9109
:1008300085FFF2CF808185FFEDCFCE010E94950329
:10084000E9CFDF91CF91089580E090E0892B29F0E6
:100850000E948B0381110E94000080E090E0892BB0
:1008600049F080E090E0892B29F00E94000081117E
:100870000E94000080E090E0892B49F080E090E049
:10088000892B29F00E94000081110E94000080E065
:1008900090E0892B49F080E090E0892B29F00E94BC
:1008A000000081110C94000008953FB7F8948091E6
:1008B000210390912203A0912303B091240326B534
:1008C000A89B05C02F3F19F00196A11DB11D3FBF88
:1008D000BA2FA92F982F8827BC01CD01620F711D57
:1008E000811D911D42E0660F771F881F991F4A9551
:1008F000D1F708958F929F92AF92BF92CF92DF92DD
:10090000EF92FF924B015C010E9455046B017C0148
:100910000E9455046C197D098E099F09683E734039
:1009200081059105A8F321E0821A9108A108B10878
:1009300088EEC80E83E0D81EE11CF11C81149104DE
:10094000A104B10429F7FF90EF90DF90CF90BF9002
:10095000AF909F908F9008952091270330912803A6
:100960002817390771F49091250380912603981771
:1009700041F0E0912503F0E0E052FD4F808190E0EE
:1009800008958FEF9FEF08950895EF92FF920F93D0
:100990001F93CF93DF93DC015C96ED90FC905D9705
:1009A000E114F10479F481E090E013969C938E9326
:1009B000129790E080E0DF91CF911F910F91FF900F
:1009C000EF9008955196ED91FC91529750968C912D
:1009D0005097982F90950FB75E962C915E97122F97
:1009E000127021FD6095F8942081112319F1282BB4
:1009F0002083E7012197F1F728E0462F50E030816E
:100A000060FF1AC0382B3083E7012197F1F7BA0154
:100A100075956795215089F7112381F0808189238D
:100A200080830FBF5C968D919C910197F1F781E0D7
:100A300090E0C1CF2923DCCF3923E5CF9081892BEA
:100A4000EFCF20912703309128032817390771F43D
:100A5000809126032091250390E0805C9F4F821BAC
:100A6000910960E470E00E943E15089590E080E0F6
:100A70000895209127033091280328173907B9F4E6
:100A80009091250380912603981789F0E091250322
:100A9000F0E0E052FD4F80812091250330E02F5F90
:100AA0003F4F2F7333272093250390E008958FEF56
:100AB0009FEF089590E080E00895FB0101900020F1
:100AC000E9F73197AF01461B570BDC01ED91FC9123
:100AD0000280F381E02D19948F929F92AF92BF9282
:100AE0000F931F93CF93DF93CDB7DEB7A1970FB6C8
:100AF000F894DEBF0FBECDBF19A2423008F44AE021
:100B00008E010F5D1F4F842E912CB12CA12CA501BD
:100B100094010E945215E62FB901CA01EA3004F58A
:100B2000E05DD801EE938D01232B242B252B79F743
:100B300090E080E0109729F0BD018DE293E00E94E3
:100B40005D05A1960FB6F894DEBF0FBECDBFDF9155
:100B5000CF911F910F91BF90AF909F908F9008956C
:100B6000E95CDFCF62E372E00C945D050F931F93A5
:100B7000CF93DF93EC010E945D058C01CE010E94B2
:100B8000B205800F911FDF91CF911F910F910895B2
:100B90000F931F93CF93DF93EC0188819981009786
:100BA00059F02A813B812617370730F081E0DF9129
:100BB000CF911F910F9108958B016F5F7F4F0E941E
:100BC000BD16009759F0998388831B830A832C8173
:100BD0003D81232B59F7FC011082E8CF80E0E7CF5D
:100BE000EF92FF920F931F93CF93DF9361157105DF
:100BF00041F480E0DF91CF911F910F91FF90EF9032
:100C0000089541155105B1F07B01EC010C811D8166
:100C1000040F151FB8010E94C805882351F32881CD
:100C200039818C819D81B701820F931F0E94A71784
:100C30001D830C8381E0DECFCF93DF93EC018881AD
:100C40009981009711F00E943416198218821D8232
:100C50001C821B821A82DF91CF910895CF92DF927E
:100C6000EF92FF920F931F93CF93DF93CDB7DEB731
:100C7000A1970FB6F894DEBF0FBECDBF7C01CB01AC
:100C8000BA01F70111821082138212821582148236
:100C90008E010F5F1F4F26E048E00E9443106C0159
:100CA000009771F0FC0101900020E9F731978F0166
:100CB000081B190BB801C7010E94C805811112C099
:100CC000C7010E941C06A1960FB6F894DEBF0FBEA6
:100CD000CDBFDF91CF911F910F91FF90EF90DF90EB
:100CE000CF900895F70115830483B6018081918127
:100CF0000E94A717E8CFFC0180819181009711F035
:100D00000C94341608951F920F920FB60F9211246F
:100D10000BB60F922F933F934F935F936F937F93F5
:100D20008F939F93AF93BF93EF93FF938DE293E0E5
:100D30000E949503FF91EF91BF91AF919F918F9189
:100D40007F916F915F914F913F912F910F900BBECB
:100D50000F900FBE0F901F9018951F920F920FB615
:100D60000F9211240BB60F922F938F939F93EF93B3
:100D7000FF93E0913D03F0913E038081E0914303B6
:100D8000F091440382FD1DC09081809146038F5FE6
:100D90008F7320914703821741F0E0914603F0E002
:100DA000E35DFC4F958F80934603FF91EF919F91F8
:100DB0008F912F910F900BBE0F900FBE0F901F9031
:100DC00018958081F2CF1F920F920FB60F921124C7
:100DD0002F933F938F939F93AF93BF93809129035A
:100DE00090912A03A0912B03B0912C033091200302
:100DF00023E0230F2D3758F50196A11DB11D209337
:100E000020038093290390932A03A0932B03B0938C
:100E10002C038091210390912203A0912303B09190
:100E200024030196A11DB11D8093210390932203F9
:100E3000A0932303B0932403BF91AF919F918F910F
:100E40003F912F910F900FBE0F901F90189526E89D
:100E5000230F0296A11DB11DD2CF1F920F920FB684
:100E60000F9211240BB60F922F933F934F935F93E2
:100E70006F937F938F939F93AF93BF93EF93FF9362
:100E8000E0912703F0912803309749F0A685B785B4
:100E90008585968D91FF16C09C918923B1F4FF91B1
:100EA000EF91BF91AF919F918F917F916F915F91E2
:100EB0004F913F912F910F900BBE0F900FBE0F904F
:100EC0001F9018959C91892351F7A389B4899C910F
:100ED0008589809589238C93868997890197F1F775
:100EE000608D718DA685B785558538E020E0CB01F2
:100EF0000197F1F7822F90E095958795282F4C91D7
:100F0000452309F02068315091F7868D81FD2095A9
:100F10008091260390E001968F73992730912503E5
:100F2000381799F0A0912603B0E0A052BD4F2C9342
:100F300080932603828D938D0197F1F7A389B4895D
:100F40008C919589892B8C93AACF868D8160868F11
:100F5000F1CF282F30E0F901EA56FD4F9491F901C5
:100F6000E059FC4F4491265D3C4FF9012491222326
:100F700009F435C0992311F191509231F8F4E92F19
:100F8000F0E08827E953F84F8F4F0C947415F80759
:100F9000FC07D907F007F407DE07FF070508090873
:100FA0000F08130817081D082108DE0725082B085D
:100FB0002F08809180008F7780938000E22FF0E0EF
:100FC000EE0FFF1FE05FFC4FA591B4918FB7F8942F
:100FD000EC91611148C040954E234C938FBF08950A
:100FE000809180008F7DE8CF80918000877FE4CF63
:100FF00084B58F7784BDE2CF84B58F7DFBCF8091A0
:10100000B0008F778093B000D9CF8091B0008F7DF2
:10101000F9CF809190008F7780939000CFCF80910F
:1010200090008F7DF9CF80919000877FF5CF8091E0
:10103000A0008F778093A000C1CF8091A0008F7D0A
:10104000F9CF8091A000877FF5CF809120018F7725
:1010500080932001B3CF809120018F7DF9CF8091C3
:101060002001877FF5CF4E2BB8CF0F931F93CF93DF
:10107000DF931092300310922F0308EE13E020E06C
:1010800030E0009331031093320320933303309305
:10109000340382E192E090932E0380932D0385EC3C
:1010A00090E090933A038093390384EC90E090931E
:1010B0003C0380933B0380EC90E090933E0380934D
:1010C0003D0381EC90E09093400380933F0382ECDA
:1010D00090E0909342038093410386EC90E09093DC
:1010E00044038093430310924603109247031092E7
:1010F0004803109249034FEF5FEFBA014093E903B1
:101100005093EA036093EB037093EC031092F103A6
:101110001092F2031092F3031092F4038FEF99EC04
:10112000AAE9BBE38093F9039093FA03A093FB032E
:10113000B093FC038093010490930204A0930304F2
:10114000B09304048093090490930A04A0930B04C1
:10115000B0930C048093110490931204A093130491
:10116000B09314048093190490931A04A0931B0461
:10117000B0931C04409321045093220460932304F1
:10118000709324048FEF90E090932A0480932904B5
:1011900040932D0450932E0460932F0470933004D9
:1011A00040933504509336046093370470933804A9
:1011B00010923D0410923E0482E080934E041092FF
:1011C0004F04109250041092510410925204109245
:1011D0005304109254041092550410925704109224
:1011E0005604109259041092580410923F04109221
:1011F000CD031092CC030093CE031093CF03209322
:10120000D0033093D10384E292E09093CB03809398
:10121000CA031092E1031092E0031092E3031092CC
:10122000E2031092E5031092E4031092E703109298
:10123000E6036091E8036E7F6D7F6093E803669537
:10124000617081E068278AE00E94A9074AE753E0BD
:10125000FA01649184E393E0FC012491222399F044
:1012600030E0220F331FF901EA50FD4FA591B491F0
:10127000F901E05FFC4F259134912FB7F8943C9130
:10128000632B6C932FBFFA0144914093DA03FC0166
:101290008491E82FF0E0EE0FFF1FE05FFC4F859197
:1012A00094919093DC038093DB0309E713E0F8014A
:1012B0002491C3E3D3E0FE0184918823C9F090E038
:1012C000880F991FFC01EA50FD4FA591B491FC01D4
:1012D000E05FFC4F459154913FB7F8949C91822F69
:1012E000809598239C93FA019081892380833FBF46
:1012F0008091E80381FD04C061E089E00E94A907B4
:1013000089E08093D603F80104910093D703FE018E
:10131000C491EC2FF0E0EE0FFF1FE452FD4F8591DA
:1013200094919093D9038093D803DF91CF911F912B
:101330000F910895CF93DF93CDB7DEB763970FB6C4
:10134000F894DEBF0FBECDBF789484B5826084BDB3
:1013500084B5816084BD85B5826085BD85B58160B9
:1013600085BD80916E00816080936E001092810037
:1013700080918100826080938100809181008160F2
:1013800080938100809180008160809380008091B3
:10139000B10084608093B1008091B000816080933F
:1013A000B0008091910082608093910080919100C3
:1013B0008160809391008091900081608093900083
:1013C0008091A10082608093A1008091A100816042
:1013D0008093A1008091A00081608093A000809103
:1013E000210182608093210180912101816080939D
:1013F00021018091200181608093200180917A00F9
:10140000846080937A0080917A00826080937A0071
:1014100080917A00816080937A0080917A00806860
:1014200080937A001092C1001092E5031092E403B9
:101430001092E3031092E2031092E1031092E00392
:101440008DE991E09093E7038093E6038091D603C2
:1014500096EF980F943048F02EEC280F243028F0A7
:1014600022EC280F283008F061C02DEB30E03093DB
:10147000E1032093E0032BE931E03093E303209371
:10148000E2032CE231E03093E5032093E40394304F
:1014900050F02EEC280F243030F022EC280FF0E032
:1014A000E0E0283010F4E8E6F0E02081943028F005
:1014B00032EC380F383008F4F0C031E0232B943090
:1014C00048F09EEC980F943028F08E53F0E0E0E066
:1014D000883010F4E8E6F0E020832091D60336EF60
:1014E000320F343008F4DBC08EEC820F843008F405
:1014F000D6C082EC820F883008F0D4C08DE690E030
:101500009093DE038093DD03343008F0CEC0265084
:10151000330B81E001C0880F2A95EAF78093DF033F
:101520008091E6039091E7030197F1F78091E4033E
:101530009091E503892B49F1E0912703F09128036D
:1015400023E0EA3CF20709F1309739F0A389B48926
:101550009C918589809589238C938091E8038E7F67
:101560008093E80310922603109225038AEC93E0FF
:101570009093280380932703E091DD03F091DE032D
:1015800080819091DF03892B8083E0913D03F0916E
:101590003E0382E08083E0913903F0913A031082A8
:1015A000E0913B03F0913C038FEC80831092450364
:1015B000E0914103F091420386E08083E0913F0394
:1015C000F0914003808180618083E0913F03F0913E
:1015D0004003808188608083E0913F03F091400365
:1015E000808180688083E0913F03F0914003808197
:1015F0008F7D808365E372E08DE293E00E94B60503
:101600006EE372E08DE293E00E94B6058DE293E016
:101610000E94B20564E670E080E090E00E947A04E7
:1016200060E070E0CB016B017C01F7FAF094F7F811
:10163000F0949B01AC010E94D81287FF4BC06C2C28
:10164000DB8A0E2D7F2C812C912C54018DE293E0AE
:101650000E947F03181619066CF48DE293E00E9435
:101660005D038335910509F441C0CCF582359105C0
:1016700009F4DFC48AEC93E00E94210518161906CC
:101680004CF48AEC93E00E943905682F8DE293E0D8
:101690000E94B7030E942404D9CF34E00FCF8BE619
:1016A00090E02ECF90E080E02BCF88E0223309F449
:1016B00035CF84E0233309F431CF82E0243309F4B9
:1016C0002DCF82EC820F883018F42E53330B21CFAC
:1016D00081E024CF612C1B8A00E0712CB4CF8237CB
:1016E000910509F4A6C48337910521F665E572E0FA
:1016F0008AEC93E00E94B60568EE73E080E090E02B
:101700000E947A046FE572E08AEC93E00E94B605CD
:1017100068EE73E080E090E00E947A048DE293E04E
:101720000E94B20566E772E08DE293E00E94B60582
:101730006EE372E08DE293E00E94B6056CE872E021
:101740008DE293E00E94B6058DE293E00E947F0354
:10175000892B09F431C38DE293E00E945D03182FB9
:101760008091520490915304A0915404B091550477
:101770000196A11DB11D8093520490935304A09330
:101780005404B0935504143209F4F3C2E0915004A8
:1017900015324CF41A3019F01D3009F0F8C2EF3050
:1017A00068F0E12CCBC01A32D1F31C3209F0EFC241
:1017B00080913D04812780933D04F1CF80914F04B7
:1017C000F0E0E15CFB4F1082E0903E04EE2009F473
:1017D00088C120913F04822F022E000C990B3FEB11
:1017E000320F363008F009C1C7978295807F9091FB
:1017F0004004292F092E000C330B4FEB490F4630C4
:1018000008F003C127533109820F90913D048913D9
:101810005EC1E0905104EE2021F280915604909137
:101820005704019690935704809356048091310495
:1018300090913204A0913304B091340480932D042C
:1018400090932E04A0932F04B09330048091390418
:1018500090913A04A0913B04B0913C0480933504EC
:1018600090933604A0933704B093380480914E04CB
:10187000882309F4D3C0813009F060C08091ED0362
:101880009091EE03A091EF03B091F0038093E903F0
:101890009093EA03A093EB03B093EC038091F503DC
:1018A0009091F603A091F703B091F8038093F103B0
:1018B0009093F203A093F303B093F4038091FD039C
:1018C0009091FE03A091FF03B09100048093F9036F
:1018D0009093FA03A093FB03B093FC03809105045B
:1018E00090910604A0910704B0910804809301042C
:1018F00090930204A0930304B09304048091150410
:1019000090911604A0911704B091180480931104CB
:1019100090931204A0931304B093140480911D04B7
:1019200090911E04A0911F04B0912004809319048B
:1019300090931A04A0931B04B0931C0480914F044D
:101940008F5F80934F041092500481E01A3209F0A7
:1019500080E080933E04EE2009F4F6CEC090F903B7
:10196000D090FA03E090FB03F090FC032090010478
:1019700030900204409003045090040460E070E052
:101980008AE794E4EFEFCE16E9ECDE06EAE9EE062C
:10199000EBE3FE0651F0C701B6010E94DF1220E022
:1019A00034E244E759E40E94831460930402709384
:1019B0000502809306029093070260E070E08AE7D8
:1019C00094E4FFEFCF16F9ECDF06FAE9EF06FBE34C
:1019D000FF0651F0C201B1010E94DF1220E034E2A3
:1019E00044E759E40E94831460930002709301025B
:1019F0008093020290930302A7CE2156263018F45A
:101A000087559109F2CEC097F0CE9156963018F4D2
:101A100027553109F9CE20533109F6CE80910D04B6
:101A200090910E04A0910F04B091100480930904CA
:101A300090930A04A0930B04B0930C048091ED03DF
:101A40009091EE03A091EF03B091F0038093E9032E
:101A50009093EA03A093EB03B093EC038091FD0312
:101A60009091FE03A091FF03B09100048093F903CD
:101A70009093FA03A093FB03B093FC0380910504B9
:101A800090910604A0910704B0910804809301048A
:101A900090930204A0930304B093040480912B0458
:101AA00090912C0490932A0480932904809125041A
:101AB00090912604A0912704B091280480932104DA
:101AC00090932204A0932304B093240437CF8091F1
:101AD00058049091590401969093590480935804A6
:101AE00060CE81111DC0AFE3B4E04EE952E09D012C
:101AF000F90181919F01882309F4A2C2FA01919111
:101B0000AF018917A9F3E4EAF2E08D91882309F483
:101B10009BC291918917C9F382E080934E040ECF46
:101B2000E0914E04E23009F43CCE90913F049923B9
:101B300009F437CE20E2E29FF0011124E82B31971F
:101B4000E932F10508F0FACE8827E655F24F8F4FBB
:101B50000C947415F00D140E320E4D0E580E920E9C
:101B6000990EA30EAE0E9E0C9E0C9E0C9E0C9E0C0F
:101B70009E0C9E0C9E0C9E0C9E0C9E0C9E0C9E0C15
:101B80009E0C9E0C9E0C9E0C9E0C9E0C9E0C9E0C05
:101B90009E0C9E0CF00D0E0E140E320E4D0E580EB5
:101BA000730E7E0ED30DEFE3F4E020E030E0A901E8
:101BB000D19080ED8D0D8A3008F0ABC0AAE0B0E086
:101BC0000E94FC132D2DDD0C330B440B550B260FFF
:101BD000371F481F591F2053310941095109E8CFC8
:101BE0000E9410026093ED037093EE038093EF0365
:101BF0009093F0032FB7F8948091290390912A03D2
:101C0000A0912B03B0912C032FBF809331049093AC
:101C10003204A0933304B093340490CE81E0913425
:101C200009F484C080E082C00E9482026093FD03B8
:101C30007093FE038093FF03909300042FB7F894F2
:101C40008091290390912A03A0912B03B0912C033A
:101C50002FBF8093390490933A04A0933B04B09330
:101C60003C046CCE933509F09CCD8091FD0390919E
:101C7000FE03A091FF03B0910004B095A09590954C
:101C800081959F4FAF4FBF4F8093FD039093FE030D
:101C9000A093FF03B093000451CE0E948202609390
:101CA000050470930604809307049093080446CEBD
:101CB000973509F076CD8091050490910604A091A6
:101CC0000704B0910804B095A095909581959F4F19
:101CD000AF4FBF4F8093050490930604A093070471
:101CE000B09308042BCE0E941002609315047093E9
:101CF0001604809317049093180420CE0E941002BB
:101D000060931D0470931E0480931F04909320041D
:101D100015CE2093F5033093F6034093F7035093C9
:101D2000F8030CCE81E091330CF47CCF8093510406
:101D300005CE8FE394E00E946110992790932C04C4
:101D400080932B04FBCD0E941002609325047093B6
:101D500026048093270490932804F0CD0E9410025B
:101D600060930D0470930E0480930F0490931004FD
:101D7000E5CD1092500410924F0410923D0482E081
:101D800080934E0410923E0410925104DDCCEE304C
:101D900040F481E08E0F80935004F0E0E15CFB4F53
:101DA000108380913E048111CFCC80913D04F82EA8
:101DB000F126F0923D04C8CC4091040250910502F6
:101DC0006091060270910702CE010D960E942E06C8
:101DD0004091000250910102609102027091030251
:101DE000CE0107960E942E061A8219821C821B823F
:101DF0001E821D826AE070E0CE0101960E94C80535
:101E0000811195C0CE0101960E941C0649895A890C
:101E10006D857E85CE0101960E94F005811104C07A
:101E2000CE0101960E941C064CE050E065EB72E08A
:101E3000CE0101960E94F005811104C0CE010196E9
:101E40000E941C064B855C856F817885CE010196CA
:101E50000E94F005811104C0CE0101960E941C066B
:101E60004D815E8169817A818DE293E00E94210338
:101E70008DE293E00E94B205CE0101960E947B069E
:101E800068EE73E080E090E00E947A04CE0107964D
:101E90000E947B06CE010D960E947B0660E070E0FA
:101EA000CB019B01AC010E94291562EC72E081110B
:101EB00016C02FEF3FEF4FE75FE7C501B4010E9467
:101EC000291581113FC02FEF3FEF4FE75FE7C501B5
:101ED000B4010E94D8121816ACF566EC72E08DE2DF
:101EE00093E00E945D058DE293E00E94B2056EE3EF
:101EF00072E08DE293E00E94B6058DE293E00E94CD
:101F0000B20564E670E080E090E00E947A046AE145
:101F10008AEC93E00E94C5048AEC93E00E94B2052B
:101F200068EE73E080E090E00E947A04A3CB8AE040
:101F300090E09E838D836AEA72E089819A810E9493
:101F4000A71764CF2FEF3FEF4FE75FE460E070E04B
:101F5000CB010E94241518161CF46AEC72E0BFCF66
:101F60002FEF3FEF4FE75FEC60E070E0CB010E94A6
:101F7000D81287FDF2CF20E030E0A901CA01B901F3
:101F80000E94D81287FF05C06DE28DE293E00E94A7
:101F9000B7032AE037ED43EA5BE3662D7B89802FA8
:101FA000972D0E9417141B012C010E94F5146B0140
:101FB0007C010E94DD129B01AC01C201B1010E94B3
:101FC00016141B012C014AE0C701B6010E946C05E2
:101FD0006EE28DE293E00E94B70320E030E040E241
:101FE00051E4C201B1010E943E131B012C010E9469
:101FF000F5146B01F12CE12C4AE0C701B6010E94F7
:102000006C05C701B6010E94DD129B01AC01C20143
:10201000B1010E94161420E030E040E251E40E9439
:102020003E130E94F51490E080E04AE00E946C05A7
:102030005ACF6EEC72E08AEC93E00E94B60570CF46
:1020400021E020934E047ACC10924E0477CC84E2A7
:1020500092E09093CB038093CA03809127039091E1
:1020600028038A5C934071F4E091DD03F091DE0374
:1020700090818091DF0380958923808310922803CB
:10208000109227030895EF920F931F93CF93DF933E
:10209000E80134E047FD34E1042E000C550B57FFF6
:1020A00003C0519541955109E32E022F242FAE0113
:1020B0000E948710CE01DF91CF911F910F91EF9079
:1020C0000895FC0188279927E89421912032E9F3AB
:1020D000293010F02E30C8F32B3241F02D3239F474
:1020E000689404C00E947F10820F911D219120539B
:1020F0002A30C0F31EF4909581959F4F08957AE0A1
:10210000979F902D879F802D910D112408958F9278
:102110009F92AF92BF92CF92DF92EF92FF920F9376
:102120001F93CF93DF9300D000D000D0CDB7DEB7A0
:102130006A01F22EB02E102FFBE3AF2EA01608F48A
:102140001BE31F5F012F27E0AE014F5F5F4F0E942F
:102150000012BC018981982F9970913009F44EC00A
:102160009BE2E1FC04C09E2D9170E0FC49C05E2D15
:102170005071E82FE87083FF55C084E0911101C0D1
:1021800083E0EF2DE81B8F1508F0E0E0D6018E2FDD
:1021900020E25523C9F1992329F0D6019C93C60169
:1021A00001966C0196012D5F3F4FE2FE33C08EE435
:1021B000D6018C9391E411969C93119712968C936F
:1021C000D9018E2F90E281112AC0E20FF32FF11D69
:1021D00010828EEF9FEF29960FB6F894DEBF0FBEE8
:1021E000CDBFDF91CF911F910F91FF90EF90DF90C6
:1021F000CF90BF90AF909F908F9008959DE2B7CF02
:1022000090E2B5CF2D9381508111FCCFCE0ED11C21
:10221000E0E0C1CF8EE6D6018C9391E6CCCF9D93C2
:102220008150D1CF482F447082FF3DC084E091118E
:1022300001C083E08F1510F4EF2DE81BD6018E2F1F
:1022400020E2552309F1992329F0D6019C93C60178
:1022500001966C0196012D5F3F4FE2FE1BC089E4A1
:10226000D6018C938EE411968C93119786E4129686
:102270008C93D9018E2F90E2882309F4A6CF9D93E9
:102280008150FACF2D9381508111FCCFCE0ED11CFD
:10229000E0E0D9CF89E6D6018C938EE611968C9337
:1022A000119786E6E4CF9B0177FF02C030E020E083
:1022B000A1E0B0E0911102C0B0E0A0E0F9013196D8
:1022C000AE0FBF1F8B2C912CBB2009F461C05401B1
:1022D000EFEFAE1ABE0AAA0DBB1DFA161B0619F0C7
:1022E00014F04F2D4A1B511188C0E3FC59C07601F0
:1022F000A42FB0E2A1114FC0C40ED11C992309F440
:102300005BC040E0D6011196F60190836D01552324
:1023100009F448C0012F060F9A81582F507184FF8D
:1023200003C0913309F4015010160CF047C0093076
:1023300008F008E0EEE2FE2E5B01A01AB10885016C
:102340009194819491082F3F320729F4D601FC9291
:10235000F60131966F016217730794F102171307A4
:102360007CF5DB01A21BB30BAA24A394B12CAC0E09
:10237000BD1EAA0DBB1D11968C9121503109D601AD
:10238000119628153905F4F0F60180836D01DBCF35
:10239000B12CA12CA0CFF701B1937F01A150AACFFE
:1023A0009111B0CFD601942F50E302C05D939150AC
:1023B0009111FCCFC40ED11C40E0ACCF01E0BACFEC
:1023C00080E3DBCF6217730731F4963388F49533DB
:1023D00011F4552369F0F6018083FD01842F90E20A
:1023E000811108C0A40FB11D1C9290E080E0F3CED3
:1023F00081E3F1CF91938150F3CF911183CF8ACFB5
:10240000283008F027E03327DA01990F311D87FDC6
:10241000916000966105710539F432602E5F3D933D
:1024200030E32A95E1F708959F3F30F08038710539
:10243000610509F03C5F3C5F3D93913008F0806896
:10244000911DDF93CF931F930F93FF92EF92192F5C
:10245000987F9695E92F96959695E90FFF27EA5074
:10246000FE4F99273327EE24FF24A701E7010590AB
:102470000894079428F4360FE71EF81E491F511DD3
:10248000660F771F881F991F0694A1F70590079480
:1024900028F4E70EF81E491F561FC11D770F881F2D
:1024A000991F661F0694A1F70590079428F4F80E6B
:1024B000491F561FC71FD11D880F991F661F771F01
:1024C0000694A1F70590079420F4490F561FC71FE3
:1024D000D81F990F661F771F881F0694A9F784914C
:1024E0001095177041F0D695C79557954795F79475
:1024F000E7941A95C1F7ECE9F1E06894159015910D
:1025000035916591959105907FE27395E118F10AF7
:10251000430B560BC90BD009C0F7E10CF11E431F4A
:10252000561FC91FD01D7EF4703311F48A95E6CF73
:10253000E894015030F0080F0AF40027021708F45D
:10254000202F2395022F7A3328F079E37D932A9563
:10255000E9F710C07D932A9589F6069497956795BB
:10256000379517951794E118F10A430B560BC90BD1
:10257000D00998F023957E9173957A3308F070E333
:102580007C932013B8F77E9170617D9330F0839532
:1025900071E37D9370E32A95E1F71124EF90FF90AA
:1025A0000F911F91CF91DF91992787FD9095089505
:1025B0000E941A1308F481E00895E89409C097FB7B
:1025C0003EF490958095709561957F4F8F4F9F4F0A
:1025D0009923A9F0F92F96E9BB279395F69587954E
:1025E00077956795B795F111F8CFFAF4BB0F11F411
:1025F00060FF1BC06F5F7F4F8F4F9F4F16C08823B8
:1026000011F096E911C0772321F09EE8872F762FED
:1026100005C0662371F096E8862F70E060E02AF02E
:102620009A95660F771F881FDAF7880F969587951A
:1026300097F90895990F0008550FAA0BE0E8FEEFEF
:1026400016161706E807F907C0F012161306E40776
:10265000F50798F0621B730B840B950B39F40A266F
:1026600061F0232B242B252B21F408950A2609F44D
:10267000A140A6958FEF811D811D08950E945113E1
:102680000C94C2130E94B41338F00E94BB1320F0C4
:10269000952311F00C94AB130C94B11311240C94EA
:1026A000F6130E94D31370F3959FC1F3950F50E07A
:1026B000551F629FF001729FBB27F00DB11D639FF4
:1026C000AA27F00DB11DAA1F649F6627B00DA11D9A
:1026D000661F829F2227B00DA11D621F739FB00D40
:1026E000A11D621F839FA00D611D221F749F3327B0
:1026F000A00D611D231F849F600D211D822F762F49
:102700006A2F11249F5750409AF0F1F088234AF025
:10271000EE0FFF1FBB1F661F771F881F9150504091
:10272000A9F79E3F510580F00C94AB130C94F6135F
:102730005F3FE4F3983ED4F3869577956795B79518
:10274000F795E7959F5FC1F7FE2B880F911D969532
:10275000879597F9089597F99F6780E870E060E0A2
:1027600008959FEF80EC089500240A94161617062A
:1027700018060906089500240A9412161306140672
:1027800005060895092E0394000C11F4882352F0D5
:10279000BB0F40F4BF2B11F460FF04C06F5F7F4F8D
:1027A0008F4F9F4F089557FD9058440F551F59F074
:1027B0005F3F71F04795880F97FB991F61F09F3F2E
:1027C00079F087950895121613061406551FF2CF57
:1027D0004695F1DF08C0161617061806991FF1CFA7
:1027E00086957105610508940895E894BB276627CE
:1027F0007727CB0197F908950E940714A59F900DA4
:10280000B49F900DA49F800D911D11240895A29F47
:10281000B001B39FC001A39F700D811D1124911DB4
:10282000B29F700D811D1124911D08955058BB2732
:10283000AA270E942E140C94C2130E94B41338F0DD
:102840000E94BB1320F039F49F3F19F426F40C9436
:10285000B1130EF4E095E7FB0C94AB13E92F0E9443
:10286000D31358F3BA17620773078407950720F04C
:1028700079F4A6F50C94F5130EF4E0950B2EBA2F0F
:10288000A02D0B01B90190010C01CA01A001112476
:10289000FF27591B99F0593F50F4503E68F11A1622
:1028A000F040A22F232F342F4427585FF3CF4695B3
:1028B00037952795A795F0405395C9F77EF41F16D5
:1028C000BA0B620B730B840BBAF09150A1F0FF0F9F
:1028D000BB1F661F771F881FC2F70EC0BA0F621F8B
:1028E000731F841F48F4879577956795B795F7957B
:1028F0009E3F08F0B0CF9395880F08F09927EE0F10
:102900009795879508950E9497140C94C2130E947E
:10291000BB1358F00E94B41340F029F45F3F29F034
:102920000C94AB1351110C94F6130C94B1130E9438
:10293000D31368F39923B1F3552391F3951B550BEA
:10294000BB27AA2762177307840738F09F5F5F4F82
:10295000220F331F441FAA1FA9F335D00E2E3AF0C1
:10296000E0E832D091505040E695001CCAF72BD0D9
:10297000FE2F29D0660F771F881FBB1F261737072A
:102980004807AB07B0E809F0BB0B802DBF01FF275C
:1029900093585F4F3AF09E3F510578F00C94AB137B
:1029A0000C94F6135F3FE4F3983ED4F38695779545
:1029B0006795B795F7959F5FC9F7880F911D969515
:1029C000879597F90895E1E0660F771F881FBB1F71
:1029D000621773078407BA0720F0621B730B840B1E
:1029E000BA0BEE1F88F7E09508950E94DB1388F07C
:1029F0009F5798F0B92F9927B751B0F0E1F0660FC3
:102A0000771F881F991F1AF0BA95C9F714C0B13003
:102A100091F00E94F513B1E008950C94F513672F1F
:102A2000782F8827B85F39F0B93FCCF38695779532
:102A30006795B395D9F73EF490958095709561951B
:102A40007F4F8F4F9F4F08950E941A1308F48FEF06
:102A500008950E941A13880B990B0895DB018F9338
:102A60009F930E94FC13BF91AF91A29F800D911D77
:102A7000A39F900DB29F900D1124089597FB072EF0
:102A800016F4009407D077FD09D00E94841507FC46
:102A900005D03EF4909581959F4F0895709561956E
:102AA0007F4F0895A1E21A2EAA1BBB1BFD010DC08A
:102AB000AA1FBB1FEE1FFF1FA217B307E407F507EE
:102AC00020F0A21BB30BE40BF50B661F771F881FCA
:102AD000991F1A9469F760957095809590959B0160
:102AE000AC01BD01CF010895EE0FFF1F881F8BBF02
:102AF0000790F691E02D1994B7FF0C94FC130E94F7
:102B0000FC13821B930B0895AA1BBB1B51E107C04A
:102B1000AA1FBB1FA617B70710F0A61BB70B881F6D
:102B2000991F5A95A9F780959095BC01CD010895FC
:102B30000F931F93CF93DF938230910510F482E0BF
:102B400090E0E0915E04F0915F0430E020E0B0E0BE
:102B5000A0E0309799F42115310509F44AC0281BEB
:102B6000390B24303105D8F58A819B8161157105B7
:102B700089F1FB0193838283FE0111C04081518161
:102B80000281138148175907E0F04817590799F453
:102B9000109761F012960C93129713961C9332962D
:102BA000CF01DF91CF911F910F91089500935E04A3
:102BB00010935F04F4CF2115310551F042175307EC
:102BC00038F0A901DB019A01BD01DF01F801C1CF95
:102BD000EF01F9CF90935F0480935E04CDCFFE01A7
:102BE000E20FF31F81939193225031093983288397
:102BF000D7CF20915C0430915D04232B41F42091C8
:102C00000A0230910B0230935D0420935C04209102
:102C10000802309109022115310541F42DB73EB764
:102C200040910C0250910D02241B350BE0915C0485
:102C3000F0915D04E217F307A0F42E1B3F0B281759
:102C4000390778F0AC014E5F5F4F2417350748F025
:102C50004E0F5F1F50935D0440935C0481939193EA
:102C60009FCFF0E0E0E09CCFCF93DF930097E9F0B7
:102C7000FC01329713821282A0915E04B0915F042E
:102C8000ED0130E020E01097A1F420813181820F26
:102C9000931F20915C0430915D042817390709F0D7
:102CA00061C0F0935D04E0935C04DF91CF910895DF
:102CB000EA01CE17DF07E8F54A815B819E014115E5
:102CC0005105B1F7E901FB83EA8349915991C40F9A
:102CD000D51FEC17FD0761F4808191810296840F66
:102CE000951FE90199838883828193819B838A83DD
:102CF000F0E0E0E012968D919C9113970097B9F562
:102D00002D913C911197CD010296820F931F209136
:102D10005C0430915D042817390739F6309751F576
:102D200010925F0410925E04B0935D04A0935C0463
:102D3000BCCFD383C28340815181840F951FC817B4
:102D4000D90761F44E5F5F4F88819981480F591F01
:102D5000518340838A819B8193838283211531052E
:102D600009F0B0CFF0935F04E0935E049ECFFD01C5
:102D7000DC01C0CF13821282D7CF4F925F926F9245
:102D80007F928F929F92AF92BF92CF92DF92EF92FB
:102D9000FF920F931F93CF93DF938C01009799F4C9
:102DA000CB01DF91CF911F910F91FF90EF90DF90BA
:102DB000CF90BF90AF909F908F907F906F905F90DB
:102DC0004F900C949815FC01E60FF71F9C012250C0
:102DD0003109E217F30708F4AEC0D901CD91DC91B7
:102DE0001197C617D70720F1C530D10578F0CE016D
:102DF00004978617970750F0C61BD70B2297C193ED
:102E0000D1936D937C93CF010E943416C801DF915A
:102E1000CF911F910F91FF90EF90DF90CF90BF90D7
:102E2000AF909F908F907F906F905F904F9008959C
:102E30005B01AC1ABD0A4C018C0E9D1EA0915E0474
:102E4000B0915F04512C412CF12CE12C109731F5FD
:102E500080915C0490915D048815990509F05CC02F
:102E60004616570608F058C0809108029091090252
:102E7000009741F48DB79EB740910C0250910D021E
:102E8000841B950BE817F90708F055C0F0935D0413
:102E9000E0935C04F90171836083B8CF8D919C91BC
:102EA000119712966C90129713967C901397A81511
:102EB000B90559F56C0142E0C40ED11CCA14DB04FB
:102EC00020F1AC014A195B09DA011296159780F0DE
:102ED0006282738251834083D9016D937C93E114A4
:102EE000F10471F0D7011396FC93EE9312978ECFF5
:102EF00022968C0F9D1FF90191838083F301EFCF00
:102F0000F0935F04E0935E0481CF4816590608F4FD
:102F10002C017D01D3019ACFCB010E9498157C0131
:102F2000009749F0AE01B8010E949E17C8010E94A7
:102F3000341687016BCF10E000E068CFFB01DC01A5
:102F400002C001900D9241505040D8F70895FB0106
:102F5000DC0101900D920020E1F7089511E0CCED25
:102F6000D1E000E006C0802FFE010E94741521967A
:102F7000011DCD3DD10780E00807A9F7F894FFCFE8
:102F800022AD14426CA9D7BF00006004800000008D
:102F90000000B70321034E0304047F035D037103A4
:102FA00000000000C50421035A05C40421053905A9
:102FB000AC040D0A0057656C636F6D652E002E2EF4
:102FC0002E2E2E2E2E2E2E2E2E2E2E2E2E2E2E2E21
:102FD0002E2E2E2E0041542B434D47463D310041AD
:102FE000542B434D47533D222B39312A2A2A2A2A72
:102FF0002A2A2A220D004E616D653A20537275739C
:103000006874692050617479616E6500596F7572DA
:10301000206C6F636174696F6E2E2E2E2E004750E8
:10302000524D43004750474741004C6174697475E5
:1030300064653A20002C4C6F6E6769747564653A5C
:1030400020006E616E00696E66006F766600415406
:103050002B434E4D493D322C322C302C302C30003D
:00000001FF
